:100000000C9462000C948A000C948A000C948A0070
:100010000C948A000C948A000C948A000C948A0038
:100020000C948A000C948A000C948A000C948A0028
:100030000C948A000C948A000C948A000C948A0018
:100040000C945F060C948A000C948A000C948A002D
:100050000C948A000C948A000C948A000C948A00F8
:100060000C9431050C948A00000000002400270045
:100070002A0000000000250028002B0000000000DE
:1000800023002600290004040404040404040202DA
:100090000202020203030303030301020408102007
:1000A0004080010204081020010204081020000012
:1000B0000008000201000003040700000000000027
:1000C0000000A90611241FBECFEFD8E0DEBFCDBFD0
:1000D00011E0A0E0B1E0E2E1F8E102C005900D928C
:1000E000A037B107D9F722E0A0E7B1E001C01D9227
:1000F000A333B207E1F710E0C2E6D0E004C02197D5
:10010000FE010E94F20BC136D107C9F70E94E0063A
:100110000C947C080C94000020910D0290910C022C
:10012000213208F04AC08091E9018111FCCF32E010
:100130003093E90131E03093E8013FEF3093E7017C
:100140001092E6012093E501ACEEB1E045EC51E000
:10015000FA013E2F341B321718F43D913193F9CF39
:100160001092C4012091C401990F922B9093C40165
:100170009091C301913061F41092C3019091C40138
:100180009093BB009091BC0093FDF8CF95EC01C01B
:1001900095EE9093BC009091E9019230E1F390913B
:1001A000E7019F3F79F08091E701803241F0809133
:1001B000E701803331F084E005C081E003C082E0D4
:1001C00001C083E01092EB0110920D021092EA013F
:1001D0000895CF92DF92EF92FF920F931F93CF93E8
:1001E000DF936C017A018B01C0E0D0E0CE15DF0512
:1001F00089F0D8016D918D01D601ED91FC910190AE
:10020000F081E02DC6010995892B11F47E0102C011
:100210002196ECCFC701DF91CF911F910F91FF90F5
:10022000EF90DF90CF900895DC01ED91FC91068472
:10023000F785E02D41E0099581E090E00895DC012B
:10024000ED91FC910684F785E02D40E00994CF9371
:10025000DF93CDB7DEB728970FB6F894DEBF0FBE99
:10026000CDBF1D8290E49E8324E12F8324E528875F
:1002700019829A8390E19B8390E59C8320912102CF
:10028000821710F08FEF820F3091220290E0FE0172
:10029000E80FF91F303121F4243011F4618101C0DD
:1002A000658160688AE192E028960FB6F894DEBF17
:1002B0000FBECDBFDF91CF910C941F01089508951B
:1002C00021E001C0220F6A95EAF7DC011C962C930D
:1002D0001C971A965C934E931997ED91FC910484A8
:1002E000F585E02D60E0099485ED8093BC00809158
:1002F000BC0084FDFCCF1092E901089540919C015F
:10030000262F30E0240F311D21323105DCF42091FD
:10031000E9012430C9F4FC0180E090E0861758F42C
:1003200030919C012191DC01A658BE4FA30FB11D55
:100330002C930196F3CF80919C01680F60939C01F0
:1003400080E0089581E0089582E00895089581E0B5
:1003500090E03091C2012091C101321710F480E089
:1003600090E091958195910908958091C2019091B5
:10037000C101891730F48F5F8093C20180E090E063
:1003800008958FEF9FEF08958091C10190E0209133
:10039000C201821B91090895CF92DF92EF92FF92E2
:1003A0000F931F93CF93DF937C01262F972F8A0102
:1003B0008091EA01882391F0C62FD72F6E01C40ED9
:1003C000D51ECC15DD0571F06991D701ED91FC9139
:1003D0000190F081E02DC7010995F3CF642F822FA2
:1003E0000E947E01C801DF91CF911F910F91FF9074
:1003F000EF90DF90CF900895CF93DF931F92CDB70A
:10040000DEB769832091EA012223D1F020910D0209
:10041000203240F021E030E0FC013383228380E091
:1004200090E015C08091EB01E82FF0E0E451FE4F21
:10043000998190838F5F8093EB0180930D0205C0BB
:1004400061E0CE0101960E947E0181E090E00F9074
:10045000DF91CF910895FC0123812223B9F091818E
:10046000909569236083828191E09093EA01809363
:100470000C021092EB0110920D028EE092E00E94AD
:10048000FC010E948C00282F30E002C020E030E008
:1004900081E090E0232B11F080E090E00895EF924E
:1004A000FF920F931F93CF938C01FC01759684E00C
:1004B000C0E060FF02C09081C92B669581503196E3
:1004C0008111F7CF413011F4F8014489F801858595
:1004D000C82BC42B7801FEE0EF0EF11CF8016289F5
:1004E0006C2BC7010E942B02F801628960956C2376
:1004F000C701CF911F910F91FF90EF900C942B02A9
:100500000F931F93CF93DF93062F0F70423019F490
:1005100040E0602F10C0142F262FEC0130E0B9010D
:1005200084E0759567958A95E1F7CE010E944F02A8
:10053000412F602FCE01DF91CF911F910F910C942D
:100540004F02FC0184858823A9F02185328521157D
:10055000310519F4611106C007C02130310521F4BD
:10056000611102C0858701C015866585CF010E9691
:100570000C942B020895089580E090E00895833054
:1005800081F028F4813099F08230A1F0089587300D
:10059000A9F08830B9F08430D1F4809180008F7D4B
:1005A00003C0809180008F7780938000089584B588
:1005B0008F7702C084B58F7D84BD08958091B0008F
:1005C0008F7703C08091B0008F7D8093B000089535
:1005D000CF93DF93EFEBF0E08491EBEAF0E0D4917E
:1005E000E7E9F0E0C491CC2391F081110E94BF02B1
:1005F000EC2FF0E0EE0FFF1FE458FF4FA591B491F0
:10060000EC91ED2381E090E021F480E002C080E0F5
:1006100090E0DF91CF910895CF93DF93282F30E0C2
:10062000F901E255FF4F8491F901E656FF4FD4914D
:10063000F901EA57FF4FC491CC2389F081110E9440
:10064000BF02EC2FF0E0EE0FFF1FEE58FF4FA59119
:10065000B4918FB7F894EC91ED2BEC938FBFDF91B1
:10066000CF9108951092E90181E08093E801109202
:10067000C30182E10E940C0383E10E940C03E9EBB9
:10068000F0E080818E7F808380818D7F808380E217
:100690008093B80085E48093BC0008953FB7F89438
:1006A0008091750190917601A0917701B0917801C8
:1006B00026B5A89B05C02F3F19F00196A11DB11DBD
:1006C0003FBFBA2FA92F982F8827820F911DA11DF8
:1006D000B11DBC01CD0143E0660F771F881F991F34
:1006E0004A95D1F708958F929F92AF92BF92CF9281
:1006F000DF92EF92FF920F931F93CF93DF93EC0162
:10070000423018F08C8188608C834F836887222365
:1007100029F0413019F48C8184608C830E944E034F
:100720004B015C0184E6C82ED12CE12CF12C0E94F7
:100730004E03DC01CB0188199909AA09BB09883E3F
:100740009340A105B10558F021E0C21AD108E10893
:10075000F10888EE880E83E0981EA11CB11CC1141C
:10076000D104E104F10419F76C8164FD31C0E88122
:10077000F9810684F785E02D42E063E0CE0109951A
:1007800084E293E20197F1F7E881F9810684F78525
:10079000E02D42E063E0CE01099508E211E0C801D6
:1007A0000197F1F7E881F9810684F785E02D42E0B1
:1007B00063E0CE010995C8010197F1F7E881F9815D
:1007C0000684F785E02D42E062E0CE01099517C06E
:1007D0006062CE010E941F0184E293E20197F1F76B
:1007E0006C816062CE010E941F0108E211E0C80125
:1007F0000197F1F76C816062CE010E941F01C80170
:100800000197F1F76C816062CE010E941F0184E7BD
:1008100090E00197F1F784E08D836CE0CE010E94B7
:100820001F0161E0CE010E941F018CE99FE001974A
:10083000F1F782E08E8366E0CE010E941F01E8811D
:10084000F9810484F585E02D6FEFCE01DF91CF9122
:100850001F910F91FF90EF90DF90CF90BF90AF90DE
:100860009F908F900994FF920F931F93CF93DF93E4
:10087000EC01162F042FF22E8B85888B1092C2016B
:100880001092C1011092EB0110920D020E943203EE
:10089000888991E09093EA0180930C020E948C0079
:1008A00091E0811190E0998B992329F08EE092E0FC
:1008B0000E94B5018E878989882339F01F861C82A2
:1008C00060E0CE010E960E942B022F2D402F612F4B
:1008D000CE01DF91CF911F910F91FF900C94730384
:1008E000CF92DF92EF92FF92CF930E94E802892B82
:1008F000E1F30E94E8020197E1F30E944E036B01CD
:100900007C01C0E40E94E802892BE1F30E94E80226
:100910000197E1F3C150B1F70E944E039B01AC0176
:100920002C193D094E095F09A0E5B0E00E947A0B41
:1009300021E732E040E050E00E945B0BC901CF911B
:10094000FF90EF90DF90CF900895009769F0FC0141
:1009500001900020E9F73197AF01481B590BBC010A
:100960008AE192E00C94E90080E090E008950E9412
:10097000A108FC0101900020E9F7AF01481B590BC9
:1009800060E070E00C947F08EF92FF920F931F934A
:10099000CF93DF93CDB7DEB7A8970FB6F894DEBF3D
:1009A0000FBECDBFF62EE72E8A01198A0E942701BD
:1009B000980120543F4137FF02C0295F3F4F83E039
:1009C000359527958A95E1F7121613062CF0211517
:1009D000310521F440E203C04BE201C04DE237FF94
:1009E00003C0319521953109C8010596EAE0F0E090
:1009F000BF010E94470B8B01C901BF010E94470B39
:100A00009F938F937F936F931F924F93C80164E6D8
:100A100070E00E94470B9F938F937F936F93EF92A9
:100A2000FF9286E291E09F938F938E010F5F1F4F9D
:100A30001F930F930E94A608C8010E94A5040FB639
:100A4000F894DEBF0FBECDBFA8960FB6F894DEBFF8
:100A50000FBECDBFDF91CF911F910F91FF90EF900F
:100A600008951F920F920FB60F9211242F933F9368
:100A70004F935F936F937F938F939F93AF93BF93A6
:100A8000EF93FF938091B900887F803609F49CC072
:100A900068F5883209F45BC090F4803109F454C0E1
:100AA00038F4882309F4F6C0883009F44DC0F6C044
:100AB000883109F44CC0803209F45DC0EFC0803445
:100AC00009F468C048F4803309F455C0883309F04C
:100AD000E5C08093E701D8C0803509F44FC0883560
:100AE00009F45DC0883409F0D9C0D6C0883909F44A
:100AF000C7C0A8F4883709F467C038F4883609F409
:100B000063C0803709F460C0C9C0883809F4B8C030
:100B1000803909F45FC0803809F0C0C05BC0803BF9
:100B200009F486C038F4803A09F466C0883A09F4BA
:100B30007FC0B4C0803C09F4A7C0883C09F4A4C0BD
:100B4000883B09F48AC0AAC08091C40110C090916A
:100B5000E6018091E501981770F5E091E60181E0EA
:100B60008E0F8093E601F0E0EB53FE4F808180937F
:100B7000BB0085EC86C08093E7018EC0E091E60162
:100B800081E08E0F8093E6018091BB00F0E0EB5393
:100B9000FE4F80839091E6018091E5016EC0E09167
:100BA000E60181E08E0F8093E6018091BB00F0E0CA
:100BB000EB53FE4F80838091E80181116DC081E08D
:100BC0008093C30184EA61C083E08093E9011092BD
:100BD000C001CFCF8091C001803208F051C0E091B8
:100BE000C00181E08E0F8093C0018091BB00F0E0D6
:100BF000E056FE4F8083BDCF85EC8093BC00109201
:100C0000E9018091C001803230F4E091C001F0E050
:100C1000E056FE4F10826091C00170E0E0919E01AD
:100C2000F0919F0180EA91E009951092C00136C0D1
:100C300084E08093E90110929D0110929C01E09163
:100C40009A01F0919B01099580919C01811105C049
:100C500081E080939C0110927A01E0919D0181E0F6
:100C60008E0F80939D01F0E0E658FE4F80818093C7
:100C7000BB0090919D0180919C01981708F479CF59
:100C800085E88093BC000AC085EC8093BC0010927C
:100C9000E90104C01092E7010E947401FF91EF91F5
:100CA000BF91AF919F918F917F916F915F914F9184
:100CB0003F912F910F900FBE0F901F9018951F928C
:100CC0000F920FB60F9211242F933F938F939F9300
:100CD000AF93BF938091710190917201A0917301C4
:100CE000B09174013091700126E0230F2D3720F46C
:100CF0000296A11DB11D05C029E8230F0396A11D71
:100D0000B11D209370018093710190937201A093A3
:100D10007301B09374018091750190917601A09157
:100D20007701B09178010196A11DB11D80937501E5
:100D300090937601A0937701B0937801BF91AF9122
:100D40009F918F913F912F910F900FBE0F901F9009
:100D50001895EEE0F2E01382128288EE93E0A0E0B4
:100D6000B0E084839583A683B78384E091E0918388
:100D70008083EAE1F2E01382128286E191E09183BE
:100D80008083108A8FEF87871686118A87E2838790
:100D9000148615861286118684E0828B82E0838B0E
:100DA00081E0848B80E1858B80E2868B80E4878B79
:100DB00080E8808F40E050E063E0CF010C94600158
:100DC000CF93DF93CDB7DEB761970FB6F894DEBF50
:100DD0000FBECDBF789484B5826084BD84B5816038
:100DE00084BD85B5826085BD85B5816085BD8091F6
:100DF0006E00816080936E0010928100809181006E
:100E00008260809381008091810081608093810065
:100E1000809180008160809380008091B100846027
:100E20008093B1008091B00081608093B000809188
:100E30007A00846080937A0080917A008260809347
:100E40007A0080917A008E7F80937A0080917A0078
:100E5000806880937A001092C1000FB6F894A8952C
:100E600080916000886180936000109260000FBEE6
:100E70001092C2011092C1011092EB0110920D026A
:100E80000E94320311E01093EA0188E680930C027D
:100E90000E948C00811134C01093EA011092EB0182
:100EA00010920D026EE08EE092E00E94FC0168E478
:100EB0008EE092E00E94FC010E948C00EBEAF0E0E0
:100EC0002491E7E9F0E084918823F1F090E0880F25
:100ED000991FFC01E859FF4F45915491FC01EE58D0
:100EE000FF4FA591B4919FB7F894FA013081822FFA
:100EF000809583238083EC91E22BEC939FBF04C009
:100F00008EE391E00E94B90411E01093EA0187E2B8
:100F100080930C021092EB0110920D020E948C0043
:100F200081111DC01093790120E042E060E18AE167
:100F300092E00E94330461E08AE192E00E941F0186
:100F40008CE99FE00197F1F7E0911A02F0911B0202
:100F50000484F585E02D6FEF8AE192E009950E9407
:100F600070046C0180917901882339F060916600EA
:100F700070E0A60180E00E94C40480916600813880
:100F8000C8F481E1EEE5F1E0DE01119601900D92E9
:100F90008A95E1F780917901882339F081E00E94F8
:100FA0002701CE0101960E94A504CE0101960E9460
:100FB000B9049AC01091660080916600F1E4CF16E2
:100FC000FFE1DF0654F08F5F80936600760100E05A
:100FD00040E4A42E4FE1B42E28C08150F5CFA501E6
:100FE000481B590BE1E4EE16EFE1FE064CF19701C8
:100FF00020543F41421753071CF4109166007C01B6
:1010000001112EC0F1E4CF16FFE1DF06ECF001E0A4
:1010100080349F410CF000E080916600823828F017
:1010200080916600815080936600A8950E947004AC
:1010300081342FE192079CF2AC0140545F41D2CF42
:1010400095012E193F09D6CF209166002F5F20937E
:10105000660020916600203C71F081349F412CF3A2
:10106000809179018823A1F0612F70E0A70181E0D0
:101070000E94C4040DC080917901882309F434C012
:1010800081E00E9427018FE491E00E94A5042CC01A
:1010900085E089838C831A8310951B8344E050E09C
:1010A00060E070E0CE0101960E947F08EAE9F0E07E
:1010B0002491E6E8F0E08491882399F090E0880F8D
:1010C000991FFC01E859FF4FA591B491FC01EE581E
:1010D000FF4F859194918FB7F894EC91E22BEC93AC
:1010E0008FBF80E00E940C0300E010E001151105A5
:1010F000E9F30E940000FACFF8940C94070CDC018D
:10110000A40FB51F4150504048F0CB01840F951FEC
:101110002E910E94900841505040D0F70895262FFC
:10112000F999FECF92BD81BDF89A019700B40216DD
:1011300039F01FBA20BD0FB6F894FA9AF99A0FBE8B
:10114000089581E090E0F8940C94070CAEE0B0E0D4
:10115000ECEAF8E00C94930B0D891E8986E08C83F1
:101160001A8309838FEF9FE79E838D83AE01475ECD
:101170005F4F6F89788DCE0101960E94C9082F813B
:101180003885F801E20FF31F10822E96E4E00C94EC
:10119000AF0BACE0B0E0EFECF8E00C94850B7C0119
:1011A0006B018A01FC0117821682838181FFBDC118
:1011B000CE0101964C01F7019381F60193FD8591D3
:1011C00093FF81916F01882309F4ABC1853239F413
:1011D00093FD859193FF81916F01853229F4B701C9
:1011E00090E00E94B10AE7CF512C312C20E0203250
:1011F000A0F48B3269F030F4803259F0833269F414
:1012000020612CC08D3239F0803339F4216026C042
:101210002260246023C0286021C027FD27C030ED54
:10122000380F3A3078F426FF06C0FAE05F9E300DA2
:101230001124532E13C08AE0389E300D1124332E12
:1012400020620CC08E3221F426FD6BC1206406C0E2
:101250008C3611F4206802C0883641F4F60193FD03
:10126000859193FF81916F018111C1CF982F9F7D4F
:101270009554933028F40C5F1F4FFFE3F9830DC0A2
:10128000833631F0833771F0833509F05BC022C0BB
:10129000F801808189830E5F1F4F44244394512CB1
:1012A000540115C03801F2E06F0E711CF801A080E6
:1012B000B18026FF03C0652D70E002C06FEF7FEFA5
:1012C000C5012C870E94A60A2C0183012C852F774B
:1012D000222E17C03801F2E06F0E711CF801A080B9
:1012E000B18026FF03C0652D70E002C06FEF7FEF75
:1012F000C5012C870E949B0A2C012C852068222E78
:10130000830123FC1BC0832D90E048165906B0F4DE
:10131000B70180E290E00E94B10A3A94F4CFF5015F
:1013200027FC859127FE81915F01B70190E00E9423
:10133000B10A31103A94F1E04F1A510841145104A6
:1013400071F7E5C0843611F0893639F5F80127FFC9
:1013500007C060817181828193810C5F1F4F08C03B
:1013600060817181072E000C880B990B0E5F1F4F57
:101370002F76722E97FF09C0909580957095619594
:101380007F4F8F4F9F4F2068722E2AE030E0A401DC
:101390000E94E90AA82EA81844C0853729F42F7E98
:1013A000B22E2AE030E025C0F22FF97FBF2E8F3613
:1013B000C1F018F4883579F0B4C0803719F0883757
:1013C00021F0AFC02F2F2061B22EB4FE0DC08B2DA7
:1013D0008460B82E09C024FF0AC09F2F9660B92EE2
:1013E00006C028E030E005C020E130E002C020E186
:1013F00032E0F801B7FE07C060817181828193817C
:101400000C5F1F4F06C06081718180E090E00E5F2D
:101410001F4FA4010E94E90AA82EA818FB2DFF77F0
:101420007F2E76FE0BC0372D3E7FA51450F474FE40
:101430000AC072FC08C0372D3E7E05C0BA2C372D7D
:1014400003C0BA2C01C0B52C34FF0DC0FE01EA0D5B
:10145000F11D8081803311F4397E09C032FF06C04E
:10146000B394B39404C0832F867809F0B39433FD0A
:1014700013C030FF06C05A2CB31418F4530C5B1879
:10148000B32CB31468F4B70180E290E03C870E946B
:10149000B10AB3943C85F5CFB31410F43B1801C0E6
:1014A000312C34FF12C0B70180E390E03C870E94EA
:1014B000B10A3C8532FF17C031FD03C088E790E0D8
:1014C00002C088E590E0B7010CC0832F867859F000
:1014D00031FF02C08BE201C080E237FD8DE2B7012F
:1014E00090E00E94B10AA51438F4B70180E390E0BF
:1014F0000E94B10A5A94F7CFAA94F401EA0DF11DA3
:101500008081B70190E00E94B10AA110F5CF33208D
:1015100009F451CEB70180E290E00E94B10A3A94FA
:10152000F6CFF7018681978102C08FEF9FEF2C964F
:10153000E2E10C94A10BFC01059061507040011098
:10154000D8F7809590958E0F9F1F0895FC016150EC
:10155000704001900110D8F7809590958E0F9F1FD5
:1015600008950F931F93CF93DF93FB01238121FDF8
:1015700003C08FEF9FEF28C022FF16C0468157811E
:10158000248135814217530744F4A081B1819D0124
:101590002F5F3F4F318320838C93268137812F5FCC
:1015A0003F4F3783268310C0EB01092F182F00848B
:1015B000F185E02D0995892BE1F68E819F810196B9
:1015C0009F838E83812F902FDF91CF911F910F9159
:1015D0000895FA01AA27283051F1203181F1E894C9
:1015E0006F936E7F6E5F7F4F8F4F9F4FAF4FB1E016
:1015F0003ED0B4E03CD0670F781F891F9A1FA11D11
:10160000680F791F8A1F911DA11D6A0F711D811D11
:10161000911DA11D20D009F468943F912AE0269FD6
:1016200011243019305D3193DEF6CF010895462F35
:101630004770405D4193B3E00FD0C9F7F6CF462F16
:101640004F70405D4A3318F0495D31FD405241937F
:1016500002D0A9F7EACFB4E0A6959795879577953C
:101660006795BA95C9F700976105710508959B01C3
:10167000AC010A2E06945795479537952795BA954C
:10168000C9F7620F731F841F951FA01D089597FB54
:10169000072E16F4009407D077FD09D00E94BC0BEA
:1016A00007FC05D03EF4909581959F4F0895709565
:1016B00061957F4F0895052E97FB1EF400940E94BC
:1016C000720B57FD07D00E94D00B07FC03D04EF4DD
:1016D0000C94720B50954095309521953F4F4F4F8C
:1016E0005F4F089590958095709561957F4F8F4FCE
:1016F0009F4F08950E94F80BA59F900DB49F900DE9
:10170000A49F800D911D112408952F923F924F9216
:101710005F926F927F928F929F92AF92BF92CF9281
:10172000DF92EF92FF920F931F93CF93DF93CDB78A
:10173000DEB7CA1BDB0B0FB6F894DEBF0FBECDBF02
:1017400009942A88398848885F846E847D848C84D3
:101750009B84AA84B984C884DF80EE80FD800C81DC
:101760001B81AA81B981CE0FD11D0FB6F894DEBFBF
:101770000FBECDBFED010895AA1BBB1B51E107C0F1
:10178000AA1FBB1FA617B70710F0A61BB70B881F11
:10179000991F5A95A9F780959095BC01CD010895A0
:1017A000A1E21A2EAA1BBB1BFD010DC0AA1FBB1F65
:1017B000EE1FFF1FA217B307E407F50720F0A21BD7
:1017C000B30BE40BF50B661F771F881F991F1A9444
:1017D00069F760957095809590959B01AC01BD016E
:1017E000CF010895EE0FFF1F0590F491E02D0994AD
:1017F000A29FB001B39FC001A39F700D811D112452
:10180000911DB29F700D811D1124911D0895F894B2
:02181000FFCF08
:1018120000000000FC01CC01BC02A601C401B5011C
:10182200A701000000001401E900BC02BB0233045E
:101832006001A10280022532642025642E25303207
:10184200644D6820256325642E25642525004453B4
:1018520033323331206E6F7420666F756E640045CB
:1018620052523A20313932204C494D4954004552A6
:10187200523A4F5554204F462052414E47450000A0
:00000001FF
