:100000000C9463000C948B000C948B000C948B006C
:100010000C948B000C948B000C948B000C948B0034
:100020000C948B000C948B000C948B000C948B0024
:100030000C948B000C948B000C948B000C948B0014
:100040000C94BD020C948B000C948B000C948B00D0
:100050000C948B000C948B000C948B000C948B00F4
:100060000C946E080C948B00000000070002010045
:100070000003040600000000000000000102040864
:100080001020408001020408102001020408102002
:10009000040404040404040402020202020203032E
:1000A00003030303000000002300260029000000D2
:1000B0000000250028002B0000000000240027007D
:1000C0002A004B02260511241FBECFEFD8E0DEBF69
:1000D000CDBF11E0A0E0B1E0E8E3FAE102C0059095
:1000E0000D92AE38B107D9F712E0AEE8B1E001C029
:1000F0001D92A137B107E1F710E0C6ECD0E004C0D3
:100100002297FE010E94160DC23CD107C9F70E943A
:1001100058040C949B090C9400006115710581F042
:10012000DB010D900020E9F7AD0141505109461B5C
:10013000570BDC01ED91FC910280F381E02D0994D5
:1001400080E090E00895DC01ED91FC910190F08158
:10015000E02D0994EF92FF920F931F93CF93DF93BB
:10016000CDB7DEB7A8970FB6F894DEBF0FBECDBFF0
:10017000F62EE72E8A01198A482F60E08FE891E079
:100180000E945605980120543F4137FF02C0295F65
:100190003F4F83E0359527958A95E1F712161306B0
:1001A0002CF02115310521F04DE203C04BE201C0D6
:1001B00040E237FF03C0319521953109C80105960A
:1001C000EAE0F0E0BF010E94790C8B01C901BF0198
:1001D0000E94790C9F938F937F936F931F924F93FD
:1001E000C80164E670E00E94790C9F938F937F931F
:1001F0006F93EF92FF9286E091E09F938F938E0131
:100200000F5F1F4F1F930F930E949E09B8018FE845
:1002100091E00E948D000FB6F894DEBF0FBECDBFF7
:10022000A8960FB6F894DEBF0FBECDBFDF91CF9179
:100230001F910F91FF90EF900895CF92DF92EF9270
:10024000FF92CF9381E10E942F04892BD9F381E1A2
:100250000E942F040197D9F30E9407036B017C01D0
:10026000C0E481E10E942F04892BD9F381E10E942F
:100270002F040197D9F3C150A1F70E9407039B01F6
:10028000AC012C193D094E095F09A0E5B0E00E94C0
:100290005A0C21E732E040E050E00E94AF0CC90167
:1002A000CF91FF90EF90DF90CF900895FC010190E7
:1002B0000020E9F7AF01481B590B60E070E00C9497
:1002C000920BAF92BF92CF92DF92EF92FF920F9379
:1002D0001F93CF93DF93CDB7DEB761970FB6F89436
:1002E000DEBF0FBECDBF0E941D017C0180918E013B
:1002F000882339F06091660070E0A70180E00E94D9
:10030000AA00809166008138F8F481E1ECE3F1E025
:10031000DE01119601900D928A95E1F780918E0190
:10032000882369F041E060E08FE891E00E94560583
:10033000BE016F5F7F4F8FE891E00E948D00CE017C
:1003400001960E94560195C0B090660080916600AB
:1003500021E4E2162FE1F20654F08F5F80936600ED
:100360008701A12C90E4C92E9FE1D92E28C081508D
:10037000F5CFA601481B590B01342FE1120754F1A8
:10038000980120543F41421753071CF4B090660077
:100390008C01A1102FC021E4E2162FE1F206F4F047
:1003A000AA24A39480349F410CF0A12C8091660074
:1003B00081508093660080916600803831F1A89565
:1003C0000E941D0181342FE192079CF2AC01405440
:1003D0005F41D2CF9601201B310BD5CF2091660013
:1003E0002F5F2093660020916600203CD9F0813475
:1003F0009F412CF380918E01882329F16B2D70E0B1
:10040000A80181E00E94AA001EC080918E0188236D
:1004100081F141E060E08FE891E00E9456056EE1D5
:1004200071E00CC080918E01882319F141E060E0F9
:100430008FE891E00E9456056DE271E08FE891E04F
:100440000E948D0016C085E089838C83BA82B094A7
:10045000BB8244E050E060E070E0CE0101960E9473
:10046000920B61E080E00E94C00361E080E00E94A6
:10047000F90361960FB6F894DEBF0FBECDBFDF91D2
:10048000CF911F910F91FF90EF90DF90CF90BF9091
:10049000AF90089508958F92AF92CF92EF920F93FD
:1004A0001F921F9283E08F9327E0822E36E0A32EC7
:1004B00045E0C42E54E0E52E00E021E042E067E292
:1004C0008FE891E00E94A4060F900F900F900F917B
:1004D000EF90CF90AF908F90089588E10FB6F89489
:1004E00080936000109260000FBE81EB91E00E944B
:1004F000FC0468E681EB91E00E94060581EB91E047
:100500000E94230581111AC068E681EB91E00E94E8
:1005100006056EE070E081EB91E00E94A30068E4C4
:1005200070E081EB91E00E94A30081EB91E00E94DA
:10053000230562E081E10E94C00304C08DE491E0E4
:100540000E94560167E281EB91E00E94060581EB73
:1005500091E00E94230581110EC081E080938E01FD
:1005600020E042E060E18FE891E00E9432078FE8EE
:1005700091E00E944F050C9461011F920F920FB6FB
:100580000F9211242F933F938F939F93AF93BF9319
:100590008091A9019091AA01A091AB01B091AC0109
:1005A0003091A80126E0230F2D3720F40296A11DDB
:1005B000B11D05C029E8230F0396A11DB11D20938D
:1005C000A8018093A9019093AA01A093AB01B093D5
:1005D000AC018091AD019091AE01A091AF01B091BD
:1005E000B0010196A11DB11D8093AD019093AE01A4
:1005F000A093AF01B093B001BF91AF919F918F9144
:100600003F912F910F900FBE0F901F9018953FB7FD
:10061000F8948091AD019091AE01A091AF01B0919D
:10062000B00126B5A89B05C02F3F19F00196A11D6A
:10063000B11D3FBF6627782F892F9A2F620F711D3A
:10064000811D911D43E0660F771F881F991F4A95F2
:10065000D1F70895CF92DF92EF92FF92CF93DF937D
:100660006B017C010E940703EB01C114D104E1047A
:10067000F10479F00E9407036C1B7D0B683E734008
:10068000A0F381E0C81AD108E108F108C851DC4F95
:10069000ECCFDF91CF91FF90EF90DF90CF90089556
:1006A0008130910541F00297009729F0880F991F3A
:1006B00001970197F1F70895789484B5826084BD1D
:1006C00084B5816084BD85B5826085BD85B5816056
:1006D00085BDEEE6F0E0808181608083E1E8F0E0B6
:1006E0001082808182608083808181608083E0E8E5
:1006F000F0E0808181608083E1EBF0E080818460C4
:100700008083E0EBF0E0808181608083EAE7F0E0C5
:100710008081846080838081826080838081816029
:1007200080838081806880831092C1000895833027
:1007300081F028F4813099F08230A1F0089586305C
:10074000A9F08730B9F08430D1F4809180008F7D9A
:1007500003C0809180008F7780938000089584B5D6
:100760008F7702C084B58F7D84BD08958091B000DD
:100770008F7703C08091B0008F7D8093B000089583
:10078000CF93DF9390E0FC01E458FF4F2491FC01EC
:10079000E057FF4F8491882349F190E0880F991F1B
:1007A000FC01E854FF4FA591B49182559F4FFC0185
:1007B000C591D4919FB7611108C0F8948C91209590
:1007C00082238C93888182230AC0623051F4F8948A
:1007D0008C91322F309583238C938881822B888350
:1007E00004C0F8948C91822B8C939FBFDF91CF91A2
:1007F00008950F931F93CF93DF931F92CDB7DEB76A
:10080000282F30E0F901E859FF4F8491F901E458AD
:10081000FF4F1491F901E057FF4F04910023C9F0F5
:10082000882321F069830E9497036981E02FF0E01B
:10083000EE0FFF1FE255FF4FA591B4919FB7F894BB
:100840008C91611103C01095812301C0812B8C9381
:100850009FBF0F90DF91CF911F910F910895CF937C
:10086000DF93282F30E0F901E859FF4F8491F90117
:10087000E458FF4FD491F901E057FF4FC491CC23C6
:1008800091F081110E949703EC2FF0E0EE0FFF1F13
:10089000EC55FF4FA591B4912C912D2381E090E070
:1008A00021F480E002C080E090E0DF91CF910895D4
:1008B0000E945C030E946D02C0E0D0E00E944A02E8
:1008C0002097E1F30E940000F9CF8091E10190E0D0
:1008D0002091E201821B910908952091E20180910B
:1008E000E101281750F4E22FF0E0ED51FE4F808136
:1008F00090E02F5F2093E20108958FEF9FEF08951E
:10090000E091E2018091E101E81730F4F0E0ED516F
:10091000FE4F808190E008958FEF9FEF0895089536
:10092000CF92DF92EF92FF920F931F93CF93DF93BB
:100930007C01CB018A012091BD01222389F0EB01CA
:100940006B01C40ED51ECC15DD0569F06991D70188
:10095000ED91FC910190F081E02DC7010995F3CF55
:10096000642F0E944508C801DF91CF911F910F911C
:10097000FF90EF90DF90CF900895CF93DF931F9279
:10098000CDB7DEB769832091BD012223D1F020913C
:10099000BE01203240F021E030E0FC0133832283AD
:1009A00080E090E015C08091BF01E82FF0E0E054B6
:1009B000FE4F998190838F5F8093BF018093BE012A
:1009C00005C061E0CE0101960E94450881E090E0FB
:1009D0000F90DF91CF910895FC011382128248EEAF
:1009E00053E060E070E0448355836683778382E65A
:1009F00091E09183808308951092E2011092E101C9
:100A00001092BF011092BE010C94D40781E0809334
:100A1000BD016093E0011092BF011092BE010895E4
:100A20000F93062F21E04091BE0160EC71E08091B0
:100A3000E0010E94F2071092BF011092BE011092D5
:100A4000BD010F91089561E00C94100581EB91E0D8
:100A50000C94EC0408950895DC01ED91FC9102845E
:100A6000F385E02D41E0099581E090E00895FC01D7
:100A70001382128222E731E0318320830895DC0162
:100A8000ED91FC910084F185E02D6FEF0994DC017C
:100A9000ED91FC910284F385E02D40E0099461E042
:100AA0000E94470580ED97E00C945003CF93DF93AD
:100AB000CDB7DEB728970FB6F894DEBF0FBECDBF17
:100AC0001D8220E42E8334E13F8334E53887198288
:100AD0002A8320E12B8320E52C83FC012781421708
:100AE00010F04FEF420FFC01308550E0FE01E40FA3
:100AF000F51F303121F4243011F4218101C025810A
:100B0000260F2068622F28960FB6F894DEBF0FBE1E
:100B1000CDBFDF91CF910C944705FC016581262F55
:100B2000246025836C600C944705CF93DF93EC0120
:100B3000423018F08C8188608C834F836887222331
:100B400029F0413019F48C8184608C8364E670E074
:100B500080E090E00E942A036C8164FD31C0E8814E
:100B6000F9810284F385E02D42E063E0CE0109952E
:100B700084E991E10E945003E881F9810284F385C0
:100B8000E02D42E063E0CE01099586E990E00E9405
:100B90005003E881F9810284F385E02D42E063E0AF
:100BA000CE01099586E990E00E945003E881F98121
:100BB0000284F385E02D42E062E0CE01099516C083
:100BC0006062CE010E94470584E991E10E945003D2
:100BD0006C816062CE010E94470586E990E00E9428
:100BE00050036C816062CE010E94470586E990E067
:100BF0000E9450036C816062CE010E9447058CE325
:100C000090E00E94500384E08D83CE010E948D0508
:100C1000CE010E944F0582E08E8366E0CE010E94E5
:100C20004705CE01DF91CF910C943F0521E001C033
:100C3000220F6A95EAF7DC011C962C931C971A96F2
:100C40005C934E931997ED91FC910084F185E02D12
:100C500060E00994FC012485222399F08185928526
:100C6000009719F4611105C006C0019721F46111C4
:100C700002C0258701C015866585CF010E960C94AC
:100C8000850708950F931F93CF93DF93EC018C0199
:100C9000025F1F4F6B85C8010E946C07019761F4CA
:100CA00061E0C8010E9454071C8260E0C8010E94F4
:100CB000850781E090E002C080E090E0DF91CF9175
:100CC0001F910F9108958F92AF92CF92EF920F9351
:100CD000CF93DF93CDB7DEB7FC016387148615860B
:100CE0001286118681E0982F01C0990F4A95EAF784
:100CF000928B982F01C0990F2A95EAF7938B982F22
:100D000001C0990F0A95EAF7948B982F01C0990FAB
:100D1000EA94EAF7958B982F01C0990FCA94EAF7E5
:100D2000968B982F01C0990FAA94EAF7978B01C070
:100D3000880F8A94EAF7808FDF91CF910F91EF901F
:100D4000CF90AF908F9008954F925F926F927F9265
:100D50008F92AF92CF92EF920F931F93CF93DF9327
:100D600000D01F92CDB7DEB73C011A894B885C8852
:100D70002B834A8369830E94370582E891E0F3015F
:100D800091838083C3010E960E944D072B814A8177
:100D90006981C3010E946306A201612FC3010F9004
:100DA0000F900F90DF91CF911F910F91EF90CF9007
:100DB000AF908F907F906F905F904F900C9416063D
:100DC000FF920F931F93CF93DF93EC01F62E8C01CC
:100DD000025F1F4F6A896F29C8010E9485076A89CF
:100DE00060956F21C801DF91CF911F910F91FF9006
:100DF0000C94850720E030E050E060FF05C0FC0166
:100E0000E20FF31F7589572B66952F5F3F4F2430F4
:100E1000310599F7413011F4FC014489FC016585E5
:100E2000652B642B0C94E0060F931F93CF93DF93F5
:100E3000EC01142F062F0F70423011F440E00AC06D
:100E400070E084E0759567958A95E1F7CE010E9480
:100E5000FA06412F602FCE01DF91CF911F910F91A4
:100E60000C94FA060F931F93CF93DF9300D01F9239
:100E7000CDB7DEB78C012B834A8369830E9442067B
:100E80002B814A816981C8010F900F900F90DF91EB
:100E9000CF911F910F910C949505FC0112828FEF59
:100EA0008183108213820895FC018381882331F0AD
:100EB000611103C08FEF818308951182089581EB42
:100EC00091E00E94060581EB91E00E94230591E0EC
:100ED000811190E0892F0895CF93DF93EC016A830D
:100EE00081EB91E00E94FC046A81CE010E945F07C1
:100EF0008B83882329F081EB91E00E946D04888325
:100F00008B8190E0DF91CF910895CF93DF93EC0137
:100F10008B818823A9F089818095862388836A81C3
:100F200081EB91E00E940605688181EB91E00E94CF
:100F3000BD0481EB91E00E942305282F30E002C020
:100F400020E030E081E090E0232B11F080E090E0A1
:100F5000DF91CF9108950895CF92DF92EF92FF92A3
:100F60000F931F93CF93DF936C017A01EB01E60E91
:100F7000F71E00E010E0CE15DF0561F06991D601A3
:100F8000ED91FC910190F081E02DC6010995080FCB
:100F9000191FF1CFC801DF91CF911F910F91FF90E1
:100FA000EF90DF90CF9008951092700281E08093CF
:100FB0006E0210926D0261E082E10E94F90361E02D
:100FC00083E10E94F903E9EBF0E080818E7F80836A
:100FD00080818D7F808380E28093B80085E4809358
:100FE000BC0008950F93413208F046C09091700202
:100FF0009111FCCF92E09093700200936E029FEFEC
:10100000909303021092480240934702FB0169E467
:1010100072E0DB019A2F961B941718F491919D931F
:10102000F9CF10926F0290916F02880F892B8093F5
:101030006F0280916D02813041F410926D028091B7
:101040006F028093BB0085EC01C085EE8093BC00ED
:10105000222321F0809170028230E1F3809103021B
:101060008F3F61F080910302803251F08091030242
:10107000803341F483E007C081E005C080E003C015
:1010800082E001C084E00F910895613298F42091CC
:101090007002243089F460932502FC0187E292E01B
:1010A000DC012A2F281B261718F421912D93F9CF44
:1010B00080E0089581E0089582E0089585ED8093B1
:1010C000BC008091BC0084FDFCCF1092700208959A
:1010D00085EC8093BC001092700208951F920F92CD
:1010E0000FB60F9211242F933F934F935F936F93FB
:1010F0007F938F939F93AF93BF93EF93FF938091D1
:10110000B900887F803609F49CC068F5883209F4FC
:101110005BC090F4803109F454C038F4882309F49A
:10112000F5C0883009F44DC0F5C0883109F44CC0D1
:10113000803209F45DC0EEC0803409F468C048F420
:10114000803309F455C0883309F0E4C0809303026A
:10115000A8C0803509F44FC0883509F45DC08834D3
:1011600009F0D8C0D5C0883909F4C6C0A8F48837BA
:1011700009F467C038F4883609F463C0803709F48D
:1011800060C0C8C0883809F4B7C0803909F45FC0AE
:10119000803809F0BFC05BC0803B09F485C038F4DB
:1011A000803A09F466C0883A09F47EC0B3C0803C36
:1011B00009F4A6C0883C09F4A3C0883B09F489C09F
:1011C000A9C080916F0210C090914802809147029F
:1011D000981770F5E091480281E08E0F80934802E5
:1011E000F0E0E75BFD4F80818093BB0085EC85C01C
:1011F000809303028DC0E091480281E08E0F8093BE
:1012000048028091BB00F0E0E75BFD4F8083909146
:101210004802809147026DC0E091480281E08E0F44
:10122000809348028091BB00F0E0E75BFD4F808334
:1012300080916E0281116CC081E080936D0284EA1E
:1012400060C083E08093700210920402CFCF80913F
:101250000402803208F050C0E091040281E08E0F59
:10126000809304028091BB00F0E0EB5FFD4F808330
:10127000BDCF80910402803230F4E0910402F0E0AE
:10128000EB5FFD4F10820E945E086091040270E0E7
:10129000E0916902F0916A0285E092E0099510926E
:1012A00004020E94680836C084E0809370021092A5
:1012B000260210922502E0916B02F0916C020995D2
:1012C00080912502811105C081E080932502109252
:1012D0002702E091260281E08E0F80932602F0E043
:1012E000E95DFD4F80818093BB0090912602809143
:1012F0002502981708F47ACF85E88093BC000AC0CD
:1013000085EC8093BC001092700204C0109203021E
:101310000E945E08FF91EF91BF91AF919F918F91D5
:101320007F916F915F914F913F912F910F900FBEE1
:101330000F901F901895F8940C941A0DAEE0B0E041
:10134000E4EAF9E00C94DC0C0D891E8986E08C83BC
:101350001A8309838FEF9FE79E838D83AE01475EDB
:101360005F4F6F89788DCE0101960E94C009EF8191
:10137000F885E00FF11F10822E96E4E00C94F80C33
:10138000ACE0B0E0E6ECF9E00C94CE0C7C016B0133
:101390008A01FC0117821682838181FFBDC1CE01C3
:1013A00001964C01F7019381F60193FD859193FF1E
:1013B00081916F01882309F4ABC1853239F493FD23
:1013C000859193FF81916F01853229F4B70190E0F7
:1013D0000E94CA0BE7CF512C312C20E02032A0F420
:1013E0008B3269F030F4803259F0833269F4206135
:1013F0002CC08D3239F0803339F4216026C0226050
:10140000246023C0286021C027FD27C030ED380F9D
:101410003A3078F426FF06C0FAE05F9E300D1124C2
:10142000532E13C08AE0389E300D1124332E2062D3
:101430000CC08E3221F426FD6BC1206406C08C36B0
:1014400011F4206802C0883641F4F60193FD8591BD
:1014500093FF81916F018111C1CF982F9F7D95548A
:10146000933028F40C5F1F4FFFE3F9830DC08336E0
:1014700031F0833771F0833509F05BC022C0F80189
:10148000808189830E5F1F4F44244394512C540163
:1014900015C03801F2E06F0E711CF801A080B18018
:1014A00026FF03C0652D70E002C06FEF7FEFC5011E
:1014B0002C870E94BF0B2C0183012C852F77222EB5
:1014C00017C03801F2E06F0E711CF801A080B180E6
:1014D00026FF03C0652D70E002C06FEF7FEFC501EE
:1014E0002C870E94B40B2C012C852068222E8301AE
:1014F00023FC1BC0832D90E048165906B0F4B701B9
:1015000080E290E00E94CA0B3A94F4CFF50127FCE8
:10151000859127FE81915F01B70190E00E94CA0B7F
:1015200031103A94F1E04F1A51084114510471F707
:10153000E5C0843611F0893639F5F80127FF07C078
:1015400060817181828193810C5F1F4F08C060812F
:101550007181882777FD8095982F0E5F1F4F2F761A
:10156000B22E97FF09C090958095709561957F4F39
:101570008F4F9F4F2068B22E2AE030E0A4010E94D6
:10158000FC0BA82EA81844C0853729F42F7EB22E54
:101590002AE030E025C0F22FF97FBF2E8F36C1F050
:1015A00018F4883579F0B4C0803719F0883721F005
:1015B000AFC02F2F2061B22EB4FE0DC08B2D8460E2
:1015C000B82E09C024FF0AC09F2F9660B92E06C00E
:1015D00028E030E005C020E130E002C020E132E048
:1015E000F801B7FE07C060817181828193810C5F31
:1015F0001F4F06C06081718180E090E00E5F1F4F39
:10160000A4010E94FC0BA82EA818FB2DFF77BF2E6B
:10161000B6FE0BC02B2D2E7FA51450F4B4FE0AC0CD
:10162000B2FC08C02B2D2E7E05C07A2C2B2D03C0BA
:101630007A2C01C0752C24FF0DC0FE01EA0DF11DAE
:101640008081803311F4297E09C022FF06C0739483
:10165000739404C0822F867809F0739423FD13C01D
:1016600020FF06C05A2C731418F4530C5718732C0F
:10167000731468F4B70180E290E02C870E94CA0BD3
:1016800073942C85F5CF731410F4371801C0312CE6
:1016900024FF12C0B70180E390E02C870E94CA0BA0
:1016A0002C8522FF17C021FF03C088E590E002C00F
:1016B00088E790E0B7010CC0822F867859F021FDB1
:1016C00002C080E201C08BE227FD8DE2B70190E00D
:1016D0000E94CA0BA51438F4B70180E390E00E9481
:1016E000CA0B5A94F7CFAA94F401EA0DF11D808138
:1016F000B70190E00E94CA0BA110F5CF332009F486
:1017000051CEB70180E290E00E94CA0B3A94F6CF26
:10171000F7018681978102C08FEF9FEF2C96E2E15F
:101720000C94EA0CDC01A40FB51F4150504048F066
:10173000CB01840F951F2E910E94A30B4150504066
:10174000D0F70895262FF999FECF92BD81BDF89A62
:10175000019700B4021639F01FBA20BD0FB6F894F5
:10176000FA9AF99A0FBE0895FC01059061507040F5
:101770000110D8F7809590958E0F9F1F0895FC015A
:101780006150704001900110D8F7809590958E0FB0
:101790009F1F08950F931F93CF93DF93182F092F47
:1017A000EB018B8181FD03C08FEF9FEF20C082FF93
:1017B00010C04E815F812C813D81421753077CF41C
:1017C000E881F9819F012F5F3F4F39832883108380
:1017D00006C0E885F985812F0995892B29F72E8187
:1017E0003F812F5F3F4F3F832E83812F902FDF91CB
:1017F000CF911F910F910895FA01AA27283051F136
:10180000203181F1E8946F936E7F6E5F7F4F8F4F31
:101810009F4FAF4FB1E03ED0B4E03CD0670F781F90
:10182000891F9A1FA11D680F791F8A1F911DA11D75
:101830006A0F711D811D911DA11D20D009F46894AE
:101840003F912AE0269F11243019305D3193DEF656
:10185000CF010895462F4770405D4193B3E00FD00C
:10186000C9F7F6CF462F4F70405D4A3318F0495DF7
:1018700031FD4052419302D0A9F7EACFB4E0A695DA
:101880009795879577956795BA95C9F700976105FC
:10189000710508959B01AC010A2E06945795479552
:1018A00037952795BA95C9F7620F731F841F951F47
:1018B000A01D08950E94050DA59F900DB49F900D49
:1018C000A49F800D911D11240895AA1BBB1B51E1FB
:1018D00007C0AA1FBB1FA617B70710F0A61BB70BA0
:1018E000881F991F5A95A9F780959095BC01CD0145
:1018F000089597FB072E16F4009407D077FD09D0C2
:101900000E94650C07FC05D03EF4909581959F4F91
:101910000895709561957F4F0895A1E21A2EAA1B34
:10192000BB1BFD010DC0AA1FBB1FEE1FFF1FA2178F
:10193000B307E407F50720F0A21BB30BE40BF50B8C
:10194000661F771F881F991F1A9469F76095709515
:10195000809590959B01AC01BD01CF010895052EA6
:1019600097FB1EF400940E94C60C57FD07D00E94FE
:101970008D0C07FC03D04EF40C94C60C509540958A
:10198000309521953F4F4F4F5F4F0895909580952B
:10199000709561957F4F8F4F9F4F08952F923F9283
:1019A0004F925F926F927F928F929F92AF92BF926F
:1019B000CF92DF92EF92FF920F931F93CF93DF931B
:1019C000CDB7DEB7CA1BDB0B0FB6F894DEBF0FBE78
:1019D000CDBF09942A88398848885F846E847D84C5
:1019E0008C849B84AA84B984C884DF80EE80FD80C7
:1019F0000C811B81AA81B981CE0FD11D0FB6F8943D
:101A0000DEBF0FBECDBFED010895A29FB001B39F11
:101A1000C001A39F700D811D1124911DB29F700DF7
:101A2000811D1124911D0895EE0FFF1F0590F49163
:081A3000E02D0994F894FFCFAA
:101A38000000710220002532642025642E253032F2
:101A4800644D6820256325642E25642525004552AC
:101A5800523A20313238204C494D495400455252AF
:101A68003A20313932204C494D4954004552523AB6
:101A78004F5554204F462052414E4745004453335A
:101A8800323331206E6F7420666F756E640000000B
:101A98000000BD04900465046D0480048F040000F8
:101AA80000002C05AC0795052A052B05AB0700009F
:0E1AB80000002C05AC07320716062A0614079C
:00000001FF
