:100000000C9462000C948A000C948A000C948A0070
:100010000C948A000C948A000C948A000C948A0038
:100020000C948A000C948A000C948A000C948A0028
:100030000C948A000C948A000C948A000C948A0018
:100040000C940A050C948A000C948A000C948A0083
:100050000C948A000C948A000C948A000C948A00F8
:100060000C94E3030C948A00000000002400270095
:100070002A0000000000250028002B0000000000DE
:1000800023002600290004040404040404040202DA
:100090000202020203030303030301020408102007
:1000A0004080010204081020010204081020000012
:1000B0000007000201000003040600000000000029
:1000C0000000020711241FBECFEFD8E0DEBFCDBF76
:1000D00011E0A0E0B1E0E8E7F7E102C005900D9281
:1000E000A235B107D9F722E0A2E5B1E001C01D9227
:1000F000A131B207E1F710E0C2E6D0E004C02197D9
:10010000FE010E94A50BC136D107C9F70E9439072D
:100110000C9422080C9400003091EB01313208F06D
:1001200047C08091C7018111FCCF9091EA0122E084
:100130002093C70121E02093C6012FEF2093C50132
:100140001092C4013093C301EAECF1E0A3EAB1E0FC
:1001500020E0321721F041914D932F5FFACF10929A
:10016000A2012091A201990F922B9093A20190914C
:10017000A101913041F41092A1019091A2019093BC
:10018000BB0095EC01C095EE9093BC009091C70127
:100190009230E1F39091C5019F3F79F08091C501C4
:1001A000803241F08091C501803331F084E005C098
:1001B00081E003C082E001C083E01092C901109287
:1001C000EB011092C801089585ED8093BC008091E9
:1001D000BC0084FDFCCF1092C7010895613298F4F1
:1001E0002091C701243089F460937E01282FAEE569
:1001F000B1E0FC018E2F821B861718F481918D933C
:10020000F9CF80E0089581E0089582E00895CF92CB
:10021000DF92EF92FF920F931F93CF93DF936C01C6
:10022000EB017B01E40EF51E00E010E0CE15DF05CA
:1002300061F06991D601ED91FC910190F081E02D82
:10024000C6010995080F191FF1CFC801DF91CF91A1
:100250001F910F91FF90EF90DF90CF900895089538
:10026000DC01ED91FC910284F385E02D41E00995DC
:1002700081E090E00895DC01ED91FC910284F3852A
:10028000E02D40E009940895089521E001C0220F77
:100290006A95EAF7DC011C962C931C971A965C93DE
:1002A0004E931997ED91FC910084F185E02D60E06B
:1002B0000994089581E090E030915D0120915C0106
:1002C000321710F480E090E091958195910908959E
:1002D00080915D0190915C01891730F48F5F80936C
:1002E0005D0180E090E008958FEF9FEF0895809189
:1002F0005C0190E020915D01821B91090895CF92ED
:10030000DF92EF92FF920F931F93CF93DF937C01C5
:10031000CB018A012091C801222389F0EB016B01F6
:10032000C40ED51ECC15DD0569F06991D701ED919C
:10033000FC910190F081E02DC7010995F3CF642F66
:100340000E94EE00C801DF91CF911F910F91FF90A5
:10035000EF90DF90CF900895CF93DF931F92CDB7AA
:10036000DEB769832091C8012223D1F02091EB01EF
:10037000203240F021E030E0FC013383228380E032
:1003800090E015C08091C901E82FF0E0E653FE4FE0
:10039000998190838F5F8093C9018093EB0105C0A1
:1003A00061E0CE0101960E94EE0081E090E00F90A6
:1003B000DF91CF910895FC0183818823C1F0962FAE
:1003C0006181609569236083828191E09093C80187
:1003D0008093EA011092C9011092EB018CEE91E03A
:1003E0000E94AC010E948C00282F30E002C020E067
:1003F00030E081E090E0232B11F080E090E0089560
:10040000EF92FF920F931F93CF938C01FC0184E036
:10041000C0E060FF02C09589C92B66958150319676
:100420008111F7CF413011F4F8014489F801858535
:10043000C82BC42B7801FEE0EF0EF11CF801628995
:100440006C2BC7010E94DB01F801628960956C2367
:10045000C701CF911F910F91FF90EF900C94DB019A
:100460000F931F93CF93DF93062F0F70423019F431
:1004700040E0602F0EC0142FEC0170E084E0759511
:1004800067958A95E1F7CE010E940002412F602F07
:10049000CE01DF91CF911F910F910C940002FC01CE
:1004A00084858823A9F0218532852115310519F429
:1004B000611106C007C02130310521F4611102C06D
:1004C000858701C015866585CF010E960C94DB01EA
:1004D0000895833081F028F4813099F08230A1F0C2
:1004E00008958630A9F08730B9F08430D1F4809136
:1004F00080008F7D03C0809180008F778093800083
:10050000089584B58F7702C084B58F7D84BD08952A
:100510008091B0008F7703C08091B0008F7D809371
:10052000B0000895CF93DF93282F30E0F901E25512
:10053000FF4F8491F901E656FF4FD491F901EA5734
:10054000FF4FC491CC2389F081110E946902EC2FE6
:10055000F0E0EE0FFF1FEE58FF4FA591B4918FB75B
:10056000F894EC91ED2BEC938FBFDF91CF91089530
:100570001092C70181E08093C6011092A10182E12F
:100580000E94920283E10E949202E9EBF0E08081F6
:100590008E7F808380818D7F808380E28093B8000E
:1005A00085E48093BC0008953FB7F894809157018B
:1005B00090915801A0915901B0915A0126B5A89B7C
:1005C00005C02F3F19F00196A11DB11D3FBFBA2FE5
:1005D000A92F982F8827820F911DA11DB11DBC0145
:1005E000CD0143E0660F771F881F991F4A95D1F709
:1005F0000895CF92DF92EF92FF920F931F93CF93C4
:10060000DF93EC01423018F08C8188608C834F833B
:100610006887222329F0413019F48C8184608C830F
:100620000E94D4028B0184E6C82ED12CE12CF12C3F
:100630000E94D402601B710B683E7340C8F381E0D6
:10064000C81AD108E108F10808511C4FC114D1049F
:10065000E104F10469F76C8164FD31C0E881F9813E
:100660000284F385E02D42E063E0CE01099583E248
:1006700093E20197F1F7E881F9810284F385E02D97
:1006800042E063E0CE01099507E211E0C80101975D
:10069000F1F7E881F9810284F385E02D42E063E01F
:1006A000CE010995C8010197F1F7E881F98102842B
:1006B000F385E02D42E062E0CE01099517C060624B
:1006C000CE010E943B0183E293E20197F1F76C8136
:1006D0006062CE010E943B0107E211E0C801019770
:1006E000F1F76C816062CE010E943B01C801019765
:1006F000F1F76C816062CE010E943B0183E790E0DC
:100700000197F1F784E08D836CE0CE010E943B01FC
:1007100061E0CE010E943B018BE99FE00197F1F778
:1007200082E08E8366E0CE010E943B01E881F98180
:100730000084F185E02D6FEFCE01DF91CF911F9105
:100740000F91FF90EF90DF90CF900994FF920F935D
:100750001F93CF93DF93EC01162F042FF22E8B857E
:10076000888B10925D0110925C011092C901109269
:10077000EB010E94B802888991E09093C8018093B0
:10078000EA010E948C0091E0811190E0998B811127
:1007900005C08CEE91E00E9468018E8789898823CC
:1007A00039F01F861C8260E0CE010E960E94DB01AC
:1007B0002F2D402F612FCE01DF91CF911F910F91EF
:1007C000FF900C94F9021F920F920FB60F92112412
:1007D0002F933F934F935F936F937F938F939F9349
:1007E000AF93BF93EF93FF938091B900887F8036DA
:1007F00009F49CC068F5883209F45BC090F480313C
:1008000009F454C038F4882309F4EFC0883009F49F
:100810004DC0EFC0883109F44CC0803209F45DC08E
:10082000E8C0803409F468C048F4803309F455C046
:10083000883309F0DEC08093C501D1C0803509F44A
:100840004FC0883509F45DC0883409F0D2C0CFC0EC
:10085000883909F4C0C0A8F4883709F467C038F4AF
:10086000883609F463C0803709F460C0C2C0883894
:1008700009F4B1C0803909F45FC0803809F0B9C00B
:100880005BC0803B09F481C038F4803A09F466C04B
:10089000883A09F47AC0ADC0803C09F4A0C0883C15
:1008A00009F49DC0883B09F483C0A3C08091A201D4
:1008B00010C09091C4018091C301981770F5E09128
:1008C000C40181E08E0F8093C401F0E0ED55FE4F2E
:1008D00080818093BB0085EC7FC08093C50187C079
:1008E000E091C40181E08E0F8093C4018091BB0030
:1008F000F0E0ED55FE4F80839091C4018091C301DB
:1009000067C0E091C40181E08E0F8093C4018091A3
:10091000BB00F0E0ED55FE4F80838091C601811150
:1009200066C081E08093A10184EA5AC083E080938D
:10093000C7011092A001CFCF8091A001803208F0B2
:100940004AC0E091A00181E08E0F8093A0018091C8
:10095000BB00F0E0E058FE4F8083BDCF8091A00146
:10096000803230F4E091A001F0E0E058FE4F1082B8
:100970000E94E4006091A00170E080E891E0E0E076
:10098000F0E009951092A0012AC084E08093C7018D
:1009900010927F0110927E01E0E0F0E009958091D5
:1009A0007E01811105C081E080937E0110925E017D
:1009B000E0917F0181E08E0F80937F01F0E0E25AA9
:1009C000FE4F80818093BB0090917F0180917E01DA
:1009D000981708F480CF85E88093BC000AC085ECA6
:1009E0008093BC001092C70104C01092C5010E9400
:1009F000E400FF91EF91BF91AF919F918F917F9113
:100A00006F915F914F913F912F910F900FBE0F907B
:100A10001F9018951F920F920FB60F9211242F93CB
:100A20003F938F939F93AF93BF9380915301909186
:100A30005401A0915501B09156013091520126E028
:100A4000230F2D3720F40296A11DB11D05C029E802
:100A5000230F0396A11DB11D2093520180935301D2
:100A600090935401A0935501B09356018091570182
:100A700090915801A0915901B0915A010196A11D80
:100A8000B11D8093570190935801A0935901B093E1
:100A90005A01BF91AF919F918F913F912F910F90EC
:100AA0000FBE0F901F901895CF93DF93CDB7DEB791
:100AB00028970FB6F894DEBF0FBECDBF409100015E
:100AC0005091010160910201709103014D835E8399
:100AD0006F83788740910401509105016091060170
:100AE0007091070149835A836B837C832091FF01B6
:100AF000821710F08FEF820F3091000290E0FE011C
:100B0000E80FF91F303121F4243011F4618101C064
:100B10006581606888EF91E028960FB6F894DEBF93
:100B20000FBECDBFDF91CF910C943B01CF93DF93EC
:100B3000EFEBF0E08491EBEAF0E0D491E7E9F0E04C
:100B4000C491CC2391F081110E946902EC2FF0E056
:100B5000EE0FFF1FE458FF4FA591B491EC91ED23E8
:100B600081E090E021F480E002C080E090E0DF913D
:100B7000CF910895CF92DF92EF92FF92CF930E9490
:100B80009605892BE1F30E9496050197E1F30E94F7
:100B9000D4026B017C01C0E40E949605892BE1F32D
:100BA0000E9496050197E1F3C150B1F70E94D4026B
:100BB0009B01AC012C193D094E095F09A0E5B0E08D
:100BC0000E942D0B21E732E040E050E00E940E0B26
:100BD000C901CF91FF90EF90DF90CF900895EF92F1
:100BE000FF920F931F93CF93DF93CDB7DEB7A897F4
:100BF0000FB6F894DEBF0FBECDBFF62EE72E8A01EA
:100C0000198A0E945405C80180549F4197FD079698
:100C100023E0959587952A95E1F71816190624F093
:100C2000009721F420E203C02BE201C02DE297FFE0
:100C300003C09195819591090B5F1F4FEAE0F0E0A9
:100C4000BF010E94FA0A9F938F937F936F931F9225
:100C50002F93C801BF010E94FA0ACB0164E670E03D
:100C60000E94FA0A9F938F93C80168EE73E00E9476
:100C7000FA0A7F936F93EF92FF9288E291E09F933D
:100C80008F938E010F5F1F4F1F930F930E94470892
:100C9000F80101900020E9F73197AF01401B510B9B
:100CA000B80188EF91E00E9407010FB6F894DEBF0B
:100CB0000FBECDBFA8960FB6F894DEBF0FBECDBF56
:100CC000DF91CF911F910F91FF90EF900895AF9218
:100CD000BF92CF92DF92EF92FF920F931F93CF9329
:100CE000DF9300D000D0CDB7DEB7809166008038AA
:100CF00019F485E5809366000E94BA056C01109195
:100D000066008091660021E4C2162FE1D20654F0FD
:100D10008F5F80936600760100E080E4A82E8FE16B
:100D2000B82E24C08150F5CFA501481B590B21E4F2
:100D3000E2162FE1F20624F1970120543F414217B9
:100D400053071CF4109166007C0101112EC001E0D4
:100D500021E4C2162FE1D206BCF481349F410CF489
:100D600000E0809166008F5F809366000E94BA0564
:100D700081342FE19207C4F2AC0140545F41D7CFD8
:100D800095012E193F09DBCF80342FE192070CF03B
:100D900000E020916600213811F580349F41FCF07D
:100DA00085E58093660080E01EC080915B0188230A
:100DB00031F0612F70E0A70181E00E94EF0585E02E
:100DC00089838C831A8310951B8344E050E060E094
:100DD00070E0CE0101960E94250881E004C0809158
:100DE00066008150C1CF0F900F900F900F90DF9150
:100DF000CF911F910F91FF90EF90DF90CF90BF9018
:100E0000AF900895ECEEF1E01382128288EE93E049
:100E1000A0E0B0E084839583A683B7838CE091E063
:100E200091838083E8EFF1E0138212828CE191E0FC
:100E300091838083108A8FEF87871686118A87E2D5
:100E40008387148615861286118684E0828B82E061
:100E5000838B81E0848B80E1858B80E2868B80E4CC
:100E6000878B80E8808F40E050E063E0CF010C94F6
:100E70004501789484B5826084BD84B5816084BD69
:100E800085B5826085BD85B5816085BD80916E0028
:100E9000816080936E001092810080918100826059
:100EA0008093810080918100816080938100809196
:100EB00080008160809380008091B1008460809385
:100EC000B1008091B00081608093B00080917A0081
:100ED000846080937A0080917A00826080937A00A7
:100EE00080917A00816080937A0080917A00806896
:100EF00080937A001092C1000FB6F894A895809163
:100F00006000886180936000109260000FBE1092B4
:100F10005D0110925C011092C9011092EB010E94D8
:100F2000B802C1E0C093C80188E68093EA010E943C
:100F30008C00811133C0C093C8011092C901109276
:100F4000EB016EE08CEE91E00E94AC0168E48CEE67
:100F500091E00E94AC010E948C00EBEAF0E0249149
:100F6000E7E9F0E084918823D9F090E0880F991F99
:100F7000FC01E859FF4FC591D491FC01EE58FF4F99
:100F8000A591B4919FB7F8948881322F309583232F
:100F90008883EC91E22BEC939FBF02C0C0E001C0BC
:100FA000C1E0D1E0D093C80187E28093EA011092BA
:100FB000C9011092EB010E948C00811117C0D093DF
:100FC0005B0120E042E060E188EF91E00E94A6032F
:100FD00061E088EF91E00E943B018BE99FE001977F
:100FE000F1F76FEF88EF91E00E944F02C11110C03E
:100FF00080915B01882359F080E00E94540540E114
:1010000050E060E471E088EF91E00E940701FFCFBB
:101010000E94BA0520915B01222339F0609166009D
:1010200070E0AC0180E00E94EF050E94670681112C
:1010300002C00E946706C0E0D0E02097F1F30E9452
:101040000000FBCFF8940C94BA0BDC01A40FB51F81
:101050004150504048F0CB01840F951F2E910E94C3
:10106000360841505040D0F70895262FF999FECF09
:1010700092BD81BDF89A019700B4021639F01FBAEB
:1010800020BD0FB6F894FA9AF99A0FBE0895AEE013
:10109000B0E0EDE4F8E00C94460B0D891E8986E083
:1010A0008C831A8309838FEF9FE79E838D83AE0124
:1010B000475E5F4F6F89788DCE0101960E94690867
:1010C000EF81F885E00FF11F10822E96E4E00C947A
:1010D000620BABE0B0E0EFE6F8E00C94380B6C018B
:1010E0007B018A01FC0117821682838181FFCCC1BA
:1010F000CE0101963C01F6019381F70193FD8591A4
:1011000093FF81917F01882309F4BAC1853239F4B4
:1011100093FD859193FF81917F01853229F4B6017A
:1011200090E00E94600AE7CF912C212C312CFFE146
:10113000F315D8F08B3279F038F4803279F08332BD
:10114000A1F4232D20611DC08D3261F0803369F43C
:10115000232D216016C0832D8260382EE32DE4609C
:101160003E2E2AC0F32DF8601DC037FC2DC020EDA7
:10117000280F2A3040F08E32B9F436FC81C1232D7D
:101180002064322E19C036FE06C08AE0989E200DDB
:101190001124922E11C0EAE02E9E200D1124222E41
:1011A000F32DF0623F2E08C08C3621F4832D806829
:1011B000382E02C0883641F4F70193FD859193FFE4
:1011C00081917F018111B3CF982F9F7D95549330EA
:1011D00028F40C5F1F4F9FE399830DC0833631F0D5
:1011E000833771F0833509F059C021C0F80180813F
:1011F00089830E5F1F4F88248394912C530113C061
:101200002801F2E04F0E511CF801A080B18036FE9B
:1012100003C0692D70E002C06FEF7FEFC5010E942F
:10122000550A4C018201F32DFF773F2E16C028018D
:1012300022E0420E511CF801A080B18036FE03C0AE
:10124000692D70E002C06FEF7FEFC5010E944A0A6E
:101250004C01F32DF0683F2E820133FC1BC0822D20
:1012600090E088169906B0F4B60180E290E00E9402
:10127000600A2A94F4CFF50137FC859137FE8191FD
:101280005F01B60190E00E94600A21102A9421E0DB
:10129000821A91088114910471F7E8C0843611F024
:1012A000893641F5F80137FE07C06081718182817E
:1012B00093810C5F1F4F08C060817181072E000C65
:1012C000880B990B0E5F1F4FF32DFF763F2E97FF74
:1012D00009C090958095709561957F4F8F4F9F4F76
:1012E000F0683F2E2AE030E0A3010E949C0A882E7D
:1012F000861845C0853731F4232D2F7EB22E2AE083
:1013000030E025C0932D997FB92E8F36C1F018F4A7
:10131000883579F0B5C0803719F0883721F0B0C032
:10132000E92FE061BE2EB4FE0DC0FB2DF460BF2E90
:1013300009C034FE0AC0292F2660B22E06C028E05C
:1013400030E005C020E130E002C020E132E0F801E9
:10135000B7FE07C060817181828193810C5F1F4F4E
:1013600006C06081718180E090E00E5F1F4FA30195
:101370000E949C0A882E8618FB2DFF773F2E36FE92
:101380000DC0232D2E7FA22E891458F434FE0BC0DD
:1013900032FC09C0832D8E7EA82E05C0B82CA32C4C
:1013A00003C0B82C01C0B92CA4FE0FC0FE01E80D8B
:1013B000F11D8081803321F49A2D997EA92E09C0D8
:1013C000A2FE06C0B394B39404C08A2D867809F0B7
:1013D000B394A3FC11C0A0FE06C0B21488F4280C7C
:1013E000922C9B180EC0B21460F4B60180E290E01B
:1013F0000E94600AB394F7CFB21418F42B1802C0FD
:10140000982C212CA4FE10C0B60180E390E00E942D
:10141000600AA2FE17C0A1FC03C088E790E002C0EA
:1014200088E590E0B6010CC08A2D867859F0A1FEBF
:1014300002C08BE201C080E2A7FC8DE2B60190E021
:101440000E94600A891438F4B60180E390E00E949B
:10145000600A9A94F7CF8A94F301E80DF11D808118
:10146000B60190E00E94600A8110F5CF222009F4B5
:1014700042CEB60180E290E00E94600A2A94F6CF44
:10148000F6018681978102C08FEF9FEF2B96E2E1F4
:101490000C94540BFC010590615070400110D8F77A
:1014A000809590958E0F9F1F0895FC0161507040AC
:1014B00001900110D8F7809590958E0F9F1F089589
:1014C0000F931F93CF93DF93FB01238121FD03C073
:1014D0008FEF9FEF2CC022FF16C0468157812481D9
:1014E00035814217530744F4A081B1819D012F5FDC
:1014F0003F4F318320838C93268137812F5F3F4F6D
:101500003783268314C08B01EC01FB010084F18535
:10151000E02D0995892BE1F6D80116968D919C91C5
:101520001797019617969C938E931697CE01DF918D
:10153000CF911F910F910895FA01AA27283051F1F8
:10154000203181F1E8946F936E7F6E5F7F4F8F4FF4
:101550009F4FAF4FB1E03ED0B4E03CD0670F781F53
:10156000891F9A1FA11D680F791F8A1F911DA11D38
:101570006A0F711D811D911DA11D20D009F4689471
:101580003F912AE0269F11243019305D3193DEF619
:10159000CF010895462F4770405D4193B3E00FD0CF
:1015A000C9F7F6CF462F4F70405D4A3318F0495DBA
:1015B00031FD4052419302D0A9F7EACFB4E0A6959D
:1015C0009795879577956795BA95C9F700976105BF
:1015D000710508959B01AC010A2E06945795479515
:1015E00037952795BA95C9F7620F731F841F951F0A
:1015F000A01D089597FB072E16F4009407D077FDE1
:1016000009D00E946F0B07FC05D03EF490958195A0
:101610009F4F0895709561957F4F0895052E97FB14
:101620001EF400940E94250B57FD07D00E94830BE7
:1016300007FC03D04EF40C94250B50954095309543
:1016400021953F4F4F4F5F4F08959095809570952E
:1016500061957F4F8F4F9F4F08950E94AB0BA59FC1
:10166000900DB49F900DA49F800D911D112408959D
:101670002F923F924F925F926F927F928F929F92A2
:10168000AF92BF92CF92DF92EF92FF920F931F9390
:10169000CF93DF93CDB7DEB7CA1BDB0B0FB6F89441
:1016A000DEBF0FBECDBF09942A88398848885F8481
:1016B0006E847D848C849B84AA84B984C884DF80F2
:1016C000EE80FD800C811B81AA81B981CE0FD11DD6
:1016D0000FB6F894DEBF0FBECDBFED010895AA1B73
:1016E000BB1B51E107C0AA1FBB1FA617B70710F00D
:1016F000A61BB70B881F991F5A95A9F7809590953F
:10170000BC01CD010895A1E21A2EAA1BBB1BFD014D
:101710000DC0AA1FBB1FEE1FFF1FA217B307E407D0
:10172000F50720F0A21BB30BE40BF50B661F771F28
:10173000881F991F1A9469F7609570958095909508
:101740009B01AC01BD01CF010895EE0FFF1F059075
:10175000F491E02D0994A29FB001B39FC001A39F13
:10176000700D811D1124911DB29F700D811D1124DA
:08177000911D0895F894FFCFCC
:10177800004014540040105000000000AC017F01EC
:10178800770168015A015901000000003001070182
:10179800A60345014F0230022532642025642E2518
:1017A8003032644D6820256325642E256425250084
:1017B800445333323331206E6F7420666F756E6414
:0217C80000001F
:00000001FF
